:020000040800F2
:100000008005002001010008090100080B0100081B
:100010000D0100080F010008110100080000000098
:1000200000000000000000000000000013010008B4
:100030001501000800000000170100081901000860
:100040001B0100081B0100081B0100081B01000820
:100050001B0100081B0100081B0100081B01000810
:100060001B0100081B0100081B0100081B01000800
:100070001B0100081B0100081B0100081B010008F0
:100080001B0100081B0100081B0100081B010008E0
:100090001B0100081B0100081B0100081B010008D0
:1000A0001B0100082B0E00081B0100081B010008A3
:1000B0001D1300081B0100081B0100081B0100089C
:1000C0001B0100081B0100081B0100081B010008A0
:1000D0001B010008FD040008770500081B0100084B
:1000E0001B0100081B0100081B010008DFF80CD0F1
:1000F00003F0E4FD004800473906000880050020B1
:100100000648804706480047FEE7FEE7FEE7FEE7B1
:10011000FEE7FEE7FEE7FEE7FEE7FEE7ED0100088B
:10012000ED00000800210020674A126842F4803286
:10013000654B1A6000BF644A126802F40030491C23
:1001400010B9B1F5A06FF6D15F4A126812F4003F02
:1001500001D0012000E00020012842D15B4A126852
:1001600042F01002594B1A601A46126822F003023C
:100170001A601A46126842F002021A60524A526825
:10018000514B5A601A4652685A601A46526842F4F5
:1001900080625A601A46526822F47C125A601A46EB
:1001A000526842F4E8125A601A46126842F08072AD
:1001B0001A6000BF444A126812F0007FFAD0424A27
:1001C000526822F00302404B5A601A46526842F0CD
:1001D00002025A6000BF3C4A526802F00C02082A30
:1001E000F9D1704710B5FFF79DFF10BD10B5364827
:1001F000006840F00100344908600846406834490E
:1002000008403149486008460068324908402E4994
:1002100008600846006820F48020086008464068AE
:1002200020F4FE0048604FF41F008860FFF7DAFFFB
:100230004FF000602849086010BD10B50021002073
:100240000022214B5B6803F00C0121B1042906D088
:10025000082928D107E0214B214C236027E01F4BC0
:100260001F4C236023E0184B5B6803F47010164B9F
:100270005B6803F48032022303EB904022B9194BF0
:100280004343174C23600DE00F4B5B6813F4003FB2
:1002900004D0144B4343124C236003E00F4B434301
:1002A0000F4C236003E00D4B0D4C236000BF00BFDB
:1002B000054B5B68C3F303130B4CE15C084B1B68F5
:1002C000CB40074C236010BD0010024000200240CC
:1002D0000000FFF8FFFFF6FE08ED00E000127A00D4
:1002E0000000002000093D000400002010B56FF060
:1002F000040001F09AF92A4800682A49B0FBF1F09D
:1003000029490870084600784FF47A714843274914
:10031000088010BD0146244A12784A434FF0E0237A
:100320005A6100229A611A46126942F001021A616A
:1003300000BF4FF0E022106910F0010F02D010F45E
:10034000803FF6D04FF0E022126922F001024FF018
:10035000E0231A6100229A6170470146134A12880D
:100360004A434FF0E0235A6100229A611A4612690B
:1003700042F001021A6100BF4FF0E022106910F054
:10038000010F02D010F4803FF6D04FF0E022126946
:1003900022F001024FF0E0231A6100229A617047B7
:1003A0000000002000127A00140000201600002037
:1003B000014600BF704700BF944A128812F0400FF8
:1003C000FAD0C2B2924B1A80704710B586B004467C
:1003D000012144F2040001F04CFF4FF40070ADF82D
:1003E000140003208DF8160018208DF8170005A9B9
:1003F000884801F01FFC4FF48060ADF81400042021
:100400008DF8170005A9834801F014FC25208DF80C
:10041000000003208DF801008DF8020001208DF806
:100420000300684601F0ADF801940020ADF8080023
:10043000ADF80A00ADF80C00ADF810000C20ADF8D6
:100440000E0001A9744802F09AFE012240F22551E3
:10045000714802F02CFF01216F4802F01CFF06B02A
:1004600010BD10B586B004460121042001F001FF43
:100470000121480401F00AFF0420ADF81400032014
:100480008DF8160018208DF8170005A9614801F0B5
:10049000D1FB0820ADF8140004208DF8170005A941
:1004A0005C4801F0C7FB26208DF8000003208DF882
:1004B00001008DF8020001208DF80300684601F06C
:1004C00060F801940020ADF80800ADF80A00ADF81E
:1004D0000C00ADF810000C20ADF80E0001A94B483F
:1004E00002F04DFE012240F22551484802F0DFFEA5
:1004F0000121464802F0CFFE06B010BD10B540F213
:100500002551454802F0BBFF10B3434802F037FFC6
:10051000C4B24248008810F4004F2BD13F480088F5
:1005200010F4804F0CD00A2C03D000203B490880E7
:1005300020E03A48008840F400403849088019E03B
:100540000D2C06D13548008840F48040334908809E
:1005500010E032480088C0F30D0031490C542F4898
:100560000088401C2D49088008460088C72801DD06
:100570000020088010BD10B500240821234802F097
:1005800068FF30B10821214802F070FF1F4802F0D7
:10059000F6FE20211D4802F05CFFA8B340F2255171
:1005A0001A4802F096FF1A480088C4B2242C05D1DC
:1005B00001201C49087000201B4908601948007878
:1005C000012803D11948184909684454154800788E
:1005D00001280AD1232C08D115490870002011499F
:1005E000087011480068134908600F480068401CF3
:1005F0000D49086008460068502805DB00200860A7
:10060000084908700A49087010BD00000044004005
:100610000444004000080140003801401A00002056
:10062000B4000020200000201C00002064000020F6
:10063000180000202400002086B00125012005902C
:100640000490002600274FF00008039002900190CC
:100650000090002400F08CF991E0012E67D1012F69
:1006600065D16B4601AA02A903A800F03FFD0398DB
:1006700078B9029868B9019858B90098012808D14A
:1006800040F65841084600F00BF91A20FFF765FEC6
:100690004DE0009878B9019868B9029858B9039864
:1006A000012808D140F65841084600F017F91A20F1
:1006B000FFF753FE3BE0029838B90198012804D1B6
:1006C0004FF4FA6000F096F831E00298012806D164
:1006D000019820B94FF4FA6000F0A9F827E00398D8
:1006E00068B9029801280AD10198012807D1009819
:1006F000012804D140F6980000F07CF817E0039838
:1007000001280CD10298012809D10198012806D1AD
:10071000009820B940F6980000F089F807E00298A8
:1007200028B9019818B94FF4FA6000F029F800F0E0
:1007300008FF804640F6C410804505DA002640F6E2
:100740005841084600F0E8F8059D04A905A800F006
:1007500029FD0598A84203D001261A20FFF7FDFDC8
:1007600000F032FD814603F0AFF884B21E2C03DCAA
:10077000002700F079F802E01E2C00DD01276CE76D
:1007800010B504464FF40071774801F0FEFA4FF4BB
:100790008071754801F0FBFA1021734801F0F5FAF9
:1007A0002021714801F0F3FAA1B2704802F060FC18
:1007B000A1B26E4802F05AFC10BD10B504464FF4C9
:1007C0000071694801F0E3FA4FF48071664801F066
:1007D000DCFA1021644801F0DAFA2021624801F0C5
:1007E000D4FAA1B2614802F043FCA1B25F4802F022
:1007F0003DFC10BD10B504464FF400715A4801F09D
:10080000C6FA4FF48071584801F0C1FA10215648D9
:1008100001F0BBFA2021544801F0B9FA00215348F5
:1008200002F026FCA1B2514802F020FC10BD10B528
:1008300004464FF400714C4801F0A7FA4FF4807160
:10084000494801F0A4FA1021474801F0A0FA2021FC
:10085000454801F09CFAA1B2444802F009FC00218D
:10086000424802F003FC10BD10B54FF400713E4841
:1008700001F08DFA4FF480713B4801F088FA1021A5
:10088000394801F084FA2021374801F080FA00212C
:10089000364802F0EDFB0021344802F0E7FB10BDC2
:1008A00070B504460D464FF400712F4801F06FFA01
:1008B0004FF480712C4801F068FA10212A4801F0A9
:1008C00064FA2021284801F062FAA1B2274802F018
:1008D000CFFBA9B2254802F0C9FB70BD70B5044634
:1008E0000D464FF40071204801F04FFA4FF480712B
:1008F0001D4801F04CFA10211B4801F048FA202154
:10090000194801F042FAA1B2184802F0B1FBA9B2AD
:10091000164802F0ABFB70BD7FB504460D460120C2
:10092000039002900190009029462046FFF7D6FFE1
:100930004FF4FA70FFF711FD11E06B4601AA02A90E
:1009400003A800F0D3FB029808B1019800B907E0B2
:1009500029462046FFF7C2FF0A20FFF7FEFCECE71E
:1009600000BFFFF781FF7FBD000C01400008004081
:100970001CB5FFF7BBFC00F04FF900F098FC00F04D
:1009800074F800234FF47A7219461046CDE900231B
:1009900000F0B2FA00F034F800234FF4E1521946A7
:1009A000104600F097F900F04CF84821092000F0BB
:1009B0000BFA00F08FF800F0E3F800F005F94FF4BF
:1009C0001650FFF74EFD00F0D1FC00F054F9002066
:1009D00000F064FD00F062F9002000F071FD00F00D
:1009E00081FD5A200249086002A003F0ABF91CBD4A
:1009F0002C000020696E6974206F6B2100000000DC
:100A000008B50121082001F034FC4FF44C70ADF81A
:100A1000000010208DF8030003208DF802006946C5
:100A2000A84801F007F94FF44C71A64801F0AFF95E
:100A30000121092001F01DFC0121A34801F0C9F9A1
:100A400008BD08B50121042001F013FC4FF400603B
:100A5000ADF8000010208DF8030003208DF802008F
:100A600069469A4801F0E6F808BD08B5012108205A
:100A700001F0FFFB0220ADF8000010208DF803000C
:100A800003208DF8020069468E4801F0D3F8012159
:100A9000082001F0EEFB0120ADF8000010208DF8D9
:100AA000030003208DF802006946864801F0C2F871
:100AB0000121042001F0DDFB8020ADF800001020B2
:100AC0008DF8030003208DF8020069467F4801F08D
:100AD000B1F808BD08B5012001F003FA002001F0CB
:100AE00039FB002000F0EFFF002001F0FAF90121AE
:100AF000112001F0BEFB4FF48040ADF8000004204F
:100B00008DF8030002208DF802006946704801F05C
:100B100091F80121112001F0ACFB4FF40050ADF829
:100B2000000004208DF8030002208DF802006946C1
:100B3000674801F07FF80121112001F09AFB4FF482
:100B40000040ADF8000004208DF8030002208DF86D
:100B5000020069465E4801F06DF80121082001F0AD
:100B600088FB4FF48050ADF8000004208DF803009E
:100B700003208DF802006946524801F05BF808BD79
:100B800008B50121042001F074FB4020ADF80000FD
:100B900048208DF8030003208DF8020069464B4879
:100BA00001F048F80121042001F063FB1020ADF8AA
:100BB000000048208DF8030003208DF802006946EC
:100BC000424801F037F808BD08B50121092001F0BD
:100BD00050FB01213C4801F0FCF80820ADF8000072
:100BE00048208DF8030003208DF80200694635483F
:100BF00001F020F80121042001F03BFB2020ADF89A
:100C0000000048208DF8030003208DF8020069469B
:100C10002E4801F00FF808BD08B50121052001F0AC
:100C200028FB0121284801F0D4F84FF40040ADF82A
:100C3000000010208DF8030003208DF802006946A3
:100C4000224800F0F7FF4FF40041204801F09FF8E0
:100C50000121042001F00DFB4FF48050ADF800009D
:100C600004208DF8030003208DF802006946174820
:100C700000F0E0FF08BD08B50121042001F0F9FAF9
:100C80000120ADF8000010208DF8030003208DF83E
:100C9000020069460D4800F0CDFF08BD08B50121EE
:100CA000042001F0E6FA0220ADF8000010208DF8D3
:100CB000030003208DF802006946044800F0BAFFE3
:100CC00008BD0000000C0140000230000008014097
:100CD00000100140F0B589B007460C4615461E4687
:100CE0000121042001F0D2FA8020ADF82000182064
:100CF0008DF8230003208DF8220008A9304800F069
:100D000099FFADF81870ADF814400020ADF81A0046
:100D1000ADF8160005A92B4801F0EAFB6020ADF8FC
:100D200004000120ADF806000020ADF80C00ADF87D
:100D30000A0001A9234801F05AFC0821214802F0C9
:100D400048F801211F4801F002FF0121042001F0B1
:100D50009DFA0121092001F08CFA4020ADF8200015
:100D600018208DF8230003208DF8220008A91448CC
:100D700000F060FFADF81850ADF814600020ADF839
:100D80001A00ADF8160005A90E4801F0B1FB60206D
:100D9000ADF804000120ADF806000020ADF80C000D
:100DA000ADF80A0001A9074801F0DFFB082105485A
:100DB00002F006F80121034801F0C9FE09B0F0BDB8
:100DC000000C0140000800407FB504460D4601219B
:100DD000C80201F04EFAADF80840681E80B2ADF8C6
:100DE00004000020ADF80A00ADF806008DF80C00F4
:100DF00001A9294801F07CFB01221146264801F097
:100E0000CCFE19208DF8000000208DF80100032091
:100E10008DF8020001208DF80300684600F0B1FB58
:100E200001211D4801F093FE7FBD10B501211A4834
:100E300002F04DF978B30121174802F059F917482B
:100E40000068401C1549086015480068401C14499A
:100E500008601448006800EB400101EBC00000F599
:100E6000FA700A2190FBF1F00C490968884205DB11
:100E70004FF400610C4800F088FF04E04FF400617B
:100E8000094800F084FF05480068B0F5FA6F02D108
:100E900000200249086010BD002C014044000020E1
:100EA000480000202C0000200008014070B50646D4
:100EB0000C461546012E04D10221884800F065FF3A
:100EC00003E00221854800F062FF012C04D10121DA
:100ED000824800F05AFF03E00121804800F057FFEC
:100EE000012D04D180217E4800F04FFF03E08021D6
:100EF0007B4800F04CFF70BD2DE9F04389B00446FB
:100F00000D4616461F46DDE910890121022001F039
:100F1000BDF90121092001F0ACF90220ADF8200053
:100F200018208DF8230003208DF8220008A96B48B3
:100F300000F080FEADF81840ADF814500020ADF878
:100F40001A00ADF8160005A9664801F0D1FA602034
:100F5000ADF804000120ADF806000020ADF80C004B
:100F6000ADF80A0001A95F4801F0D1FB08215D48F6
:100F700001F043FF01215B4801F0E9FD012102205E
:100F800001F084F90121092001F073F90120ADF885
:100F9000200018208DF8230003208DF8220008A9D6
:100FA0004E4800F047FEADF81860ADF81470002010
:100FB000ADF81A00ADF8160005A94A4801F098FAF4
:100FC0006020ADF804000120ADF806000020ADF867
:100FD0000C00ADF80A0001A9424801F051FB0821BC
:100FE000404801F001FF01213E4801F0B0FD012120
:100FF000022001F04BF90121052001F03AF980208F
:10100000ADF8200018208DF8230003208DF8220071
:1010100008A9334800F00EFEADF81880ADF8149022
:101020000020ADF81A00ADF8160005A92D4801F012
:101030005FFA6020ADF804000120ADF80600002042
:10104000ADF80C00ADF80A0001A9264801F0CFFA6E
:101050000821244801F0BDFE0121224801F077FD5E
:1010600009B0BDE8F0832DE9F04706460C46154669
:10107000304602F0F5FB82461B4902F09BFA074618
:10108000204602F0EDFB8246174902F093FA8046B3
:10109000284602F0E5FB8246134902F08BFA8146AE
:1010A000384602F0F8FB1FFA80FA51460D4801F06D
:1010B000E3FF404602F0EFFB1FFA80FA5146094871
:1010C00001F0D8FF484602F0E6FB1FFA80FA5146CD
:1010D000044801F0CDFFBDE8F0870000000C01409E
:1010E0000008014000040040DBF97A402DE9F0419E
:1010F00004460D4616461F464FF48041274800F02F
:101100002AFE20604FF40051244800F024FE28609D
:101110004FF40041214800F01EFE30604FF4805132
:101120001F4800F018FE3860BDE8F0812DE9F0415D
:101130004FF48041194800F00EFE05464FF400516F
:10114000164800F008FE06464FF40041134800F030
:1011500002FE07464FF48051114800F0FCFD804626
:10116000012D01D1002001E04FF47A700446012ED8
:1011700001D1002000E064200444012F01D10020AF
:1011800000E00A200444B8F1010F01D0012000E082
:10119000002004442046BDE8F0810000001001401A
:1011A000000C014070B504460D460821044800F0CB
:1011B000D2FD20602021034800F0CDFD286070BDE5
:1011C000000C0140000801402DE9FC4700260027E3
:1011D000B24662E04FF40041584800F0D6FD1420BA
:1011E000FFF798F84FF40041544800F0D0FD00BFDD
:1011F0004FF48051514800F0AEFD0028F8D0012195
:10120000880701F0A4FC0AF1010A13E04C480068C9
:101210001FFA80F9B9F1280F0CDB00214FF0804054
:1012200001F095FC00204FF080418884444908601B
:10123000BDE8FC874FF48051404800F08CFD012848
:10124000E4D000214FF0804001F081FC4FF080405D
:1012500001F02BFF80463A49096801EB4102C2EBDD
:10126000C11108EBC10002F009FB04460022354B16
:1012700002F087FACDE9000102F050FB064639463C
:10128000304602F03FF9074600204FF08041888445
:101290002B4908600120FFF760F8BAF1050F99D1DA
:1012A0002949384602F0BCF906463046C0E71FB56A
:1012B0000121084600F0EAFF4FF0804001F044F8B9
:1012C00040F2E730ADF808004720ADF804000020F8
:1012D000ADF80A00ADF8060001A94FF0804001F01A
:1012E00007F901221146900701F057FC4FF4A06066
:1012F00000F042F900208DF801008DF802001C205A
:101300008DF8000001208DF80300684600F039F9DF
:1013100000214FF0804001F01AFC1FBD10B50121E3
:10132000880701F0D4FE40B10121880701F0E0FEFA
:1013300003480068401C0249086010BD00080140D5
:101340004C00002000004D400000A04008B50121E5
:10135000042000F08EFF0120ADF8000000208DF881
:1013600003006946494800F065FC08BD00B585B03A
:1013700001214FF4017000F07CFF4FF4004000F0B9
:10138000E0FEFFF7E3FF424800F072F90020009012
:101390008DF804008DF805004FF4602002900020C5
:1013A000039001208DF810006946394800F087F954
:1013B0000121374800F0AFF9354800F0CEF900BF01
:1013C000334800F0CFF90028FAD1314800F0D4F9C1
:1013D00000BF2F4800F0D5F90028FAD105B000BDB4
:1013E00010B50446072301222146294800F0FFF9E1
:1013F0000121274800F0CFF900BF0221244800F066
:1014000022FB0028F9D0224800F058FA10BD2DE93F
:10141000F04107460C460025002608E03846FFF755
:10142000DFFF05440520FEF798FF701CC6B2A642F8
:10143000F4DBB5FBF4F080B2BDE8F0812DE9F047B4
:101440000A210020FFF7E3FF8146484602F011FA27
:10145000824602F04DFA06464FF066320D4B02F01E
:101460001FF9044602F05AFA80464046BDE8F0876C
:1014700010B5FFF76BFFFFF7E1FF04460649204672
:1014800002F098F80446204610BD00000008014014
:101490000024014066664A3F91ED344010B5044691
:1014A000FFF7E9FB24B90121044800F06EFC03E0DA
:1014B0000121024800F06BFC10BD00000008014053
:1014C00010B50446FFF7EAFB24B90221044800F0F6
:1014D0005CFC03E00221024800F059FC10BD000052
:1014E00000080140704710B5044607230122214639
:1014F0001F4800F07CF901211D4800F04CF900BFA5
:1015000002211B4800F09FFA0028F9D0184800F08B
:10151000D5F910BD2DE9F04107460C4600250026FF
:1015200008E03846FFF7DFFF05440520FEF715FF0A
:10153000701CC6B2A642F4DBB5FBF4F080B2BDE885
:10154000F08138B50121042000F093FE0220ADF8AF
:10155000000000208DF803006946064800F06AFB91
:101560000A210120FFF7D6FF0446204638BD0000BF
:10157000002401400008014036490143364A116009
:10158000704770B5002100230F22C4784CB3324C51
:10159000246804F4E064C4F5E0644FEA1421C1F166
:1015A000040322FA01F2447804FA03F1847804EA8D
:1015B000020444EA01014FEA0111284C0678A155C2
:1015C000047804F01F054FF0010404FA05F40578CF
:1015D0004FEA65154FF0E02606EB8505C5F800419A
:1015E00009E0047804F01F050124AC401C4D067886
:1015F000761145F8264070BD1A4A0A4002431A4B3C
:101600001A60704741B1194A126842EA00024FF06D
:10161000E023C3F8102D07E0144A126822EA000202
:101620004FF0E023C3F8102D7047042808D14FF085
:10163000E021096941F004014FF0E022116107E067
:101640004FF0E021096921F004014FF0E02211611F
:10165000704700000000FA050CED00E000E400E037
:1016600080E100E080FFFF1F08ED00E010ED00E0EA
:1016700010B50446F848844208D10121401500F015
:1016800012FE0021601500F00EFE17E0F3488442C0
:1016900008D10121001500F006FE0021201500F000
:1016A00002FE0BE0EE48844208D10121C80300F09D
:1016B000FAFD00214FF4004000F0F5FD10BD30B5FB
:1016C0000246002000235068E64C20400D790C684B
:1016D00044EA0524204350609068E34C2040D1E95F
:1016E00002542C434D7944EA450420439060D06A6B
:1016F00020F470000C7C641EE4B2234340EA0350E3
:10170000D06230BD00210160017141718160C16012
:1017100001210174704721B1826842F001028260A8
:1017200003E0826822F001028260704721B1826882
:1017300042F48072826003E0826822F480728260E8
:10174000704710B50023CBB21AB144681C43446003
:1017500002E044689C43446010BD816841F0080188
:1017600081607047014600208A6812F0080F01D09E
:10177000012000E000207047816841F00401816091
:101780007047014600208A6812F0040F01D0012042
:1017900000E00020704721B1826842F4A00282601C
:1017A00003E0826822F4A0028260704701460020B4
:1017B0008A6812F4800F01D0012000E000207047F9
:1017C00010B50A4600210023416821F46041531EF0
:1017D00041EA4331416010BD21B1426842F40062E8
:1017E000426003E0426822F4006242607047F0B554
:1017F00004460D4600200021092D11DDE068A5F109
:101800000A0606EB4607072606FA07F18843A5F104
:101810000A0606EB460603FA06F10843E0600CE010
:10182000206905EB4507072606FA07F1884305EB13
:10183000450603FA06F108432061072A0FDA606BB8
:10184000561E06EB86071F2606FA07F18843561E2A
:1018500006EB860605FA06F10843606322E00D2ACE
:101860000FDA206BD61F06EB86071F2606FA07F154
:101870008843D61F06EB860605FA06F10843206367
:1018800010E0E06AA2F10D0606EB86071F2606FAB5
:1018900007F18843A2F10D0606EB860605FA06F16C
:1018A0000843E062F0BD21B1826842F48012826098
:1018B00003E0826822F48012826070470146C86C9F
:1018C00080B2704769480068704721B1426842F4AD
:1018D0008062426003E0426822F4806242607047A6
:1018E00021B1426842F48052426003E0426822F42F
:1018F0008052426070470A460021816821F4E0412D
:1019000011438160704721B1826842F400428260D5
:1019100003E0826822F400428260704721B182684D
:1019200042F40212826003E0826822F402128260B2
:101930007047014600208A6812F4001F01D0012080
:1019400000E000207047F0B5044615460020002254
:101950000026092911DDE068A1F10A0707EB470C11
:10196000072707FA0CF29043A1F10A0707EB470794
:1019700003FA07F21043E0600CE0206901EB410C30
:10198000072707FA0CF2904301EB410703FA07F22D
:1019900010432061A06BC0F30156EF1C06F1010C4F
:1019A000A7EB0C0707EB870C1F2707FA0CF29043F5
:1019B000EF1C06F1010CA7EB0C0707EB870701FAF8
:1019C00007F21043A063F0BD10B50A4600210023C2
:1019D000816B21F44011531E41EA0351816310BD14
:1019E00010B5002303460B441A6010BD02460023C5
:1019F000134601F128000344186880B270470A4674
:101A0000002141681A4B19401143416070474162FF
:101A1000826270470A460021416821F01F0111438C
:101A20004160704738B11349096841F40001124A16
:101A3000C2F8081406E00F49096821F400010E4AB3
:101A4000C2F8081470470246002013680B4201D008
:101A5000012000E0002070470024014000280140E0
:101A6000003C0140FFFEF0FFFDF7F1FF4C24014078
:101A7000FFFD3FFF0824014000200140CA430260EF
:101A8000704770B502460020002300240B125568F1
:101A9000CEB205EA060415681D4202D00CB1012041
:101AA00000E0002070BD00220A12D343036070479B
:101AB00010B5012000F011FC002000F00EFC10BD5C
:101AC000244908607047244908607047234908602A
:101AD000704701460020224A10884FF67F4200EAF4
:101AE000020040EA01001F4AA2F82C0C7047014690
:101AF00000201B4A10884FF6807200EA020040EA7C
:101B00000100184AA2F82C0C70470022144A2C3A03
:101B100002441160704701460022114A2C3A0A44DF
:101B20001088704710480068C0B270470F4800889E
:101B300040F001000B49A1F8340C70470C480068D4
:101B4000C0B270470948008840F002000549A1F87A
:101B5000340C704704860D4200860D4288860D4283
:101B60002C6C004000600040A0860D42346C0040A8
:101B7000A4860D4210B50446CA48844208D101210A
:101B8000042000F090FB0021042000F08CFB46E0D4
:101B9000C548844208D10121082000F084FB0021BF
:101BA000082000F080FB3AE0C048844208D10121BF
:101BB000102000F078FB0021102000F074FB2EE0D4
:101BC000BB48844208D10121202000F06CFB002199
:101BD000202000F068FB22E0B648844208D10121B1
:101BE000402000F060FB0021402000F05CFB16E08C
:101BF000B148844208D10121802000F054FB00212B
:101C0000802000F050FB0AE0AC48844207D101215B
:101C1000801500F048FB0021A01500F044FB10BD2A
:101C200010B50121084600F03EFB0021012000F024
:101C30003AFB10BD2DE9F0410246002500260020A8
:101C400000230024002791F803C00CF00F0591F841
:101C500003C01CF0100F03D091F802C04CEA050538
:101C6000B1F800C01CF0FF0F31D0146800202BE049
:101C70004FF0010C0CFA00F3B1F800C00CEA0306B7
:101C80009E4220D183004FF00F0C0CFA03F7BC43A7
:101C900005FA03FC4CEA040491F803C0BCF1280FD8
:101CA00006D14FF0010C0CFA00FCC2F814C00AE097
:101CB00091F803C0BCF1480F05D14FF0010C0CFAAC
:101CC00000FCC2F810C0401C0828D1D31460B1F841
:101CD00000C0BCF1FF0F34DD546800202EE000F19D
:101CE000080C4FF0010808FA0CF3B1F800C00CEA38
:101CF00003069E4221D183004FF00F0C0CFA03F72C
:101D0000BC4305FA03FC4CEA040491F803C0BCF19F
:101D1000280F05D100F1080C08FA0CF8C2F814805D
:101D200091F803C0BCF1480F07D100F1080C4FF047
:101D3000010808FA0CF8C2F81080401C0828CED31D
:101D40005460BDE8F0814FF6FF710180022181707F
:101D50000421C17070470246002093680B4201D0F5
:101D6000012000E0002070470146886880B270477B
:101D700002460020D3680B4201D0012000E0002081
:101D800070470146C86880B2704701617047416181
:101D900070470AB1016100E041617047C16070475E
:101DA0004FF480320A438261816182618269826973
:101DB000704702460020424B18684FF68073184067
:101DC00040EA021008433E4B186070473D49C86125
:101DD0007047F0B50A46002300240021002500F0DA
:101DE0000046B6F1004F02D1354EF16901E0344EA4
:101DF0007168C0F3034583B200F44016B6F5401F86
:101E000008D121F070612E4E766826F070662C4F56
:101E10007E6012E000F48016B6F5801F06D103261E
:101E200006FA05F4A14341F0706106E0460D360163
:101E300003FA06F6B14341F0706122B1460D360156
:101E400003FA06F6314300F00046B6F1004F02D126
:101E50001B4EF16101E01A4E7160F0BD30B50022F9
:101E60008B071C0F0F2303FA04F2154B08338C1059
:101E700053F824309343124C08348D1044F8253025
:101E800023468C1053F824308C07240F00FA04F4F6
:101E900023430B4C08348D1044F8253030BD0A49DB
:101EA0000860704700080140000C0140001001402C
:101EB0000014014000180140001C014000200140B6
:101EC0000000014000002042DC00204210B501214A
:101ED000080700F0F5F900214FF0805000F0F0F90C
:101EE00010BD2C49086270472A49086170470146B5
:101EF0000020294A106820F0E00008431060704775
:101F000026490860704710B502460020224B186829
:101F100020F0030010431860214B1B6843F00403BA
:101F20004FF0E024C4F8103D012901D130BF00E09A
:101F300020BF1B4B1B6823F004034FF0E024C4F8C0
:101F4000103D10BD1448006840F0040012490860BC
:101F50000846006840F0020008601148006840F040
:101F600004004FF0E021C1F8100D00BF00BF30BFEA
:101F7000704701460020084A52680A4201D00120F9
:101F800000E0002070470449096841EA8001024AE4
:101F90001160704700000E4200700040A0000E4229
:101FA00010ED00E0DB48006840F00100D94908600E
:101FB00008464068D8490840D64948600846006845
:101FC000D6490840D34908600846006820F48020BC
:101FD00008600846406820F4FE0048604FF41F0087
:101FE00088607047CB49096821F48031C94A116083
:101FF0001146096821F480211160B0F5803F03D0BB
:10200000B0F5802F0ED106E0C249096841F4803155
:10201000C04A116007E0BF49096841F4A021BD4AE8
:10202000116000E000BF00BF704710B501460022FC
:10203000002300204A11012A02D1B64C236806E091
:10204000022A02D1B34C236A01E0B24C636A01F068
:102050001F02012494401C4201D0012000E0002016
:1020600010BD70B500240025002600BF3120FFF709
:10207000DCFF0646641CB4F5A06F01D0002EF5D03D
:102080003120FFF7D2FF08B1012500E000252846E6
:1020900070BD014600209F4A106820F0F80040EA19
:1020A000C100106070479E490860704702460020DA
:1020B000984B586820F47C1042EA01031843954B72
:1020C0005860704796490866704701460020914A5B
:1020D000506820F003000843506070478D48406806
:1020E00000F00C007047014600208A4A506820F03A
:1020F000F00008435060704701460020854A506850
:1021000020F4E06008435060704701460020814A97
:10211000506820F4605040EAC1005060704729B117
:102120007C4A527A02437B4B5A7206E0794A527AD1
:10213000C343DBB21A40774B5A7270477949086043
:10214000704701460020734A506820F4404008431D
:10215000506070470021744A11706E4A82F8201056
:10216000012802D0042808D103E001216E4A117031
:1021700004E005216C4A117000E000BF00BF704709
:102180006A49086070476349096A0143614A1162FC
:10219000704767490860704730B50021002200246D
:1021A00000235C4D6D6805F00C0121B1042905D0B8
:1021B000082923D105E05F4D056022E05D4D0560F3
:1021C0001FE0544D6D6805F47012524D6D6805F4B2
:1021D0008034022505EB92421CB9574D55430560EA
:1021E0000BE04C4D6D6815F4003F03D0524D554344
:1021F000056002E04F4D5543056002E04D4D05601E
:1022000000BF00BF434D6D6805F0F00109094B4D5B
:102210006B5C0568DD4045603E4D6D6805F4E0612E
:10222000090A464D6B5C4568DD408560394D6D6837
:1022300005F46051C90A414D6B5C4568DD40C560DD
:10224000344D6D6805F44041890B3D4D6B5CC568AC
:10225000B5FBF3F5056130BD29B12E4A5269024341
:102260002C4B5A6104E02B4A52698243294B5A6134
:10227000704729B1274A92690243264B9A6104E0CC
:10228000244A92698243234B9A61704729B1214ABB
:10229000D26902431F4BDA6104E01E4AD2698243CD
:1022A0001C4BDA61704729B11A4AD2680243194BB4
:1022B000DA6004E0174AD2688243164BDA6070474E
:1022C00029B1144A12690243124B1A6104E0114AFF
:1022D000126982430F4B1A6170471A4908607047B0
:1022E0000F49C86470470B49C87170470948406A74
:1022F00040F0807007494862704701460020054A57
:1023000092680A4201D0012000E000207047014994
:1023100088727047001002400000FFF8FFFFF6FED1
:1023200000004242D8004242201002408004424253
:102330003C04424200127A0000093D005000002097
:10234000600000204004424210B50446FF48844229
:1023500008D10121C014FFF7A6FF0021E014FFF708
:10236000A2FFC4E0B4F1804F08D101210846FFF775
:10237000A7FF00210120FFF7A3FFB8E0F448844243
:1023800008D101210220FFF79BFF00210220FFF767
:1023900097FFACE0EF48844208D101210420FFF709
:1023A0008FFF00210420FFF78BFFA0E0EA48844262
:1023B00008D101210820FFF783FF00210820FFF743
:1023C0007FFF94E0E548844208D101211020FFF707
:1023D00077FF00211020FFF773FF88E0E048844278
:1023E00008D101212020FFF76BFF00212020FFF7FB
:1023F00067FF7CE0DB48844208D101214014FFF7ED
:1024000052FF00216014FFF74EFF70E0D64884426F
:1024100009D10121C804FFF746FF00214FF4002035
:10242000FFF741FF63E0D148844209D1012108054B
:10243000FFF739FF00214FF48010FFF734FF56E01B
:10244000CB48844209D101214805FFF72CFF002128
:102450004FF40010FFF727FF49E0C648844208D137
:1024600001214020FFF72CFF00214020FFF728FF2B
:102470003DE0C148844208D101218020FFF720FFC0
:1024800000218020FFF71CFF31E0BC48844208D1C6
:1024900001218015FFF714FF0021A015FFF710FFA1
:1024A00025E0B748844209D101210804FFF7FBFE6B
:1024B00000214FF48030FFF7F6FE18E0B148844267
:1024C00009D101214804FFF7EEFE00214FF400304E
:1024D000FFF7E9FE0BE0AC48844208D101218804F3
:1024E000FFF7E1FE00214FF48020FFF7DCFE10BD76
:1024F00000220288954B98420ED09A4B98420BD0FE
:10250000B0F1804F08D0924B984205D0914B984241
:1025100002D0914B984204D14FF68F731A404B88EA
:102520001A438E4B984207D08D4B984204D04FF6F9
:10253000FF431A40CB881A4302808B8883850B881F
:102540000385824B98420BD0864B984208D08C4B27
:10255000984205D08B4B984202D08B4B984201D1C8
:102560000B7A038601238382704770B50024002212
:102570000023058C4FF6FE7635400584028C838857
:10258000048B4FF68F752C40B51E2C400D882C43C4
:10259000751E2A400D892A434D882A436B4DA84257
:1025A0000BD0704DA84208D0754DA84205D0754D8E
:1025B000A84202D0744DA84213D14FF6F7752A40B5
:1025C0004D892A434FF6FB752A408D882A434FF6E2
:1025D000FF652B404FF6FF552B408D892B43CD894E
:1025E0002B4383800483CD888586028470BD70B5BB
:1025F000002400220023058C4FF6EF763540058439
:10260000028C8388048B48F6FF752C404FF6FF45FB
:102610002C400D882D0644EA15444FF6DF752A40FC
:102620000D892D0542EA15424D882D0542EA1542D5
:10263000464DA84202D04B4DA8421BD14FF67F75A4
:102640002A404D892D0542EA15424FF6BF752A40B2
:102650008D882D0542EA15424FF6FF352B404FF28B
:10266000FF752B408D89AD0443EA1543CD89AD0438
:1026700043EA154383800483CD880587028470BDB7
:1026800070B5002400220023058C4FF6FF6635400C
:102690000584028C8388848B4FF68F752C404FF60F
:1026A000FC752C400D882C434FF6FF552A400D89B0
:1026B0002D0642EA15424D882D0642EA1542234D69
:1026C000A84202D0274DA8421BD14FF2FF752A40E5
:1026D0004D892D0642EA15424FF6FF352A408D8876
:1026E0002D0642EA15424EF6FF752B404DF6FF755A
:1026F0002B408D892D0543EA1543CD892D0543EAED
:10270000154383808483CD888587028470BD70B52E
:10271000002200230024058C4EF6FF763540058408
:10272000038C8488828B48F6FF752A404FF6FF455C
:102730002A400D882D0642EA15424DF6FF752B40C2
:102740000D892D0743EA15434D881FE0002C0140F9
:102750000004004000080040000C00400010004051
:102760000014004000340140004C01400050014082
:102770000054014000180040001C004000200040B0
:102780000040014000440140004801402D0743EA59
:102790001543F94DA84202D0F84DA84206D14BF698
:1027A000FF752C408D89AD0544EA154484808283F1
:1027B000CD88A0F84050038470BD828B4FF2FF3368
:1027C0001A408283828B0B0642EA1342828370474F
:1027D000F0B50C461546002200210026078C4EF667
:1027E000FF7C07EA0C070784828B018C27073E0CCD
:1027F00040F6FF473A402F0642EA17421F0742EAD7
:102800001742DD4FB8420ED0DC4FB8420BD0B0F1CA
:10281000804F08D0DA4FB84205D0DA4FB84202D024
:10282000D94FB84206D14DF6FF77394046F480576C
:10283000394305E047F6FF57394044F480573943A0
:1028400082830184F0BD828B4FF6F3731A4082833A
:10285000828B0A4382837047F0B50C4615460022EE
:1028600000210026078C4FF6FF6C07EA0C0707844F
:10287000828B018C27063E0C4FF60C773A401F05E1
:1028800045EA17473A43BC4FB8420ED0BB4FB84257
:102890000BD0B0F1804F08D0B94FB84205D0B94F36
:1028A000B84202D0B84FB84206D14FF6FF57394070
:1028B00046F48077394305E04FF2FF57394044F43E
:1028C0008077394382830184F0BD028B4FF2FF335E
:1028D0001A400283028B0B0642EA134202837047BE
:1028E000F0B50C461546002200210026078C4FF655
:1028F000EF7C07EA0C070784028B018C27053E0C4E
:1029000040F6FF473A401F0742EA17422F0642EAC5
:102910001742994FB8420ED0984FB8420BD0B0F141
:10292000804F08D0964FB84205D0964FB84202D09B
:10293000954FB84206D14FF6DF77394046F0100781
:10294000394305E04FF65F77394044F010073943CB
:1029500002830184F0BD028B4FF6F3731A400283A9
:10296000028B0A4302837047F0B50C4615460022DD
:102970000021068C4FF6FE773E400684028B018CC8
:102980004FF60C7632401E0545EA164632437A4E23
:10299000B0420ED0794EB0420BD0B0F1804F08D08B
:1029A000774EB04205D0774EB04202D0764EB0425C
:1029B00006D14FF6FD76314044F00106314305E083
:1029C0004FF6F576314044F001063143028301842D
:1029D000F0BD70B505460C46674885420ED0674885
:1029E00085420BD0B5F1804F08D06548854205D0AF
:1029F0006448854202D06448854200D100E000BFAF
:102A0000208850B92389A28861882846FFF7ACFF47
:102A1000E1882846FFF79FFF25E0208804280AD197
:102A20002389A28861882846FFF75AFFE188284653
:102A3000FFF74BFF17E0208808280AD12389A288D6
:102A400061882846FFF708FFE1882846FFF7FBFE6C
:102A500009E02389A28861882846FFF7B9FEE1884A
:102A60002846FFF7AAFE70BD2DE9F04105460C4649
:102A700000260127608808B9022600E00026A08809
:102A8000012801D1022700E001272088A0B923896D
:102A9000A28861882846FFF767FFE1882846FFF78C
:102AA0005AFF23893A4631462846FFF719FFE18845
:102AB0002846FFF70AFF13E02389A2886188284689
:102AC000FFF70EFFE1882846FFF7FFFE23893A460D
:102AD00031462846FFF748FFE1882846FFF73BFFCD
:102AE000BDE8F0810A884B881A438B881A43CB884B
:102AF0001A430B891A434B891A438B891A43A0F84E
:102B0000442070474FF6FF71818000210180C18011
:102B10004180017270470021018041808180C18025
:102B2000018141818181C181704700210180418003
:102B3000012181800021C180018170470021018035
:102B400041808180C180018141818181704721B1B3
:102B5000028842F00102028004E002884FF6FE7310
:102B60001A400280704789B1B0F8442042F4004214
:102B7000A0F8442010E00000002C01400034014087
:102B80000004004000080040000C0040B0F8442061
:102B9000C2F30E02A0F84420704710B51AB1838921
:102BA0000B43838104E08389CC43A4B22340838117
:102BB00010BD8182704741EA0203A0F84830704797
:102BC00010B51AB183890B43838104E08389CC4318
:102BD000A4B22340838110BD01894FF6F8721140E1
:102BE000018170470A46002101894FF68F73194011
:102BF00011430181704730B504460D4629462046F1
:102C0000FFF7F0FF208940F00700208130BD2DE95B
:102C1000F04104460D4616461F46602D06D13B4640
:102C2000012231462046FFF75BFE05E03B460122CC
:102C300031462046FFF798FE29462046FFF7D2FF8F
:102C4000208940F007002081BDE8F08130B50C46B6
:102C500000210189C9B21D0642EA154525432943D1
:102C6000018130BD2DE9F04105460E4617469846D4
:102C7000002443463A4631462846FFF7E7FF2C89B1
:102C80004FF6F8710C4044F007044FF68F710C407A
:102C900044F070042C81BDE8F081F0B504460D4687
:102CA00016461F463B46324629462046FFF7CEFFD2
:102CB000208940F480402081F0BD018582827047E8
:102CC0000A46002101884FF68F7319401143018095
:102CD0007047F0B50C4615461E4600210022002321
:102CE0000189028B038C4FF6F877394021434FF668
:102CF000FC473A4040F201173A434FF6DD773B403C
:102D0000370545EA17473B43018102830384F0BD41
:102D10000A460021018B4FF68F731940114301833E
:102D200070470A460021018B48F6FF7319401306CD
:102D300041EA1341018370470A460021818B4FF617
:102D40008F7319401143818370470A460021818B9C
:102D500048F6FF731940130641EA13418183704717
:102D600021B1028842F08002028004E002884FF61E
:102D70007F731A400280704721B1828842F00402BA
:102D8000828004E082884FF6FB731A40828070478D
:102D900021B1828842F00802828004E082884FF6E6
:102DA000F7731A408280704721B1828842F0010295
:102DB000828004E082884FF6FE731A40828070475A
:102DC0000A460021018B4FF6F77319401143018326
:102DD00070470A460021018B4FF2FF73194013061A
:102DE00041EA1341018370470A460021818B4FF667
:102DF000F77319401143818370470A460021818B84
:102E00004FF2FF731940130641EA13418183704763
:102E10000A460021018B4FF6FB73194011430183D1
:102E200070470A460021018B4FF6FF331940130605
:102E300041EA1341018370470A460021818B4FF616
:102E4000FB7319401143818370470A460021818B2F
:102E50004FF6FF331940130641EA1341818370474F
:102E60000A460021018B4FF67F73194011430183FD
:102E700070470A460021018BC1F30E01130641EA97
:102E80001341018370470A460021818B4FF67F73FF
:102E900019401143818370470A460021818BC1F399
:102EA0000E01130641EA1341818370470A4600214F
:102EB000018C4FF6FD7319401143018470470A4697
:102EC0000021018C4FF6F7731940114301847047BC
:102ED0000A460021018C4FF6DF731940130541EAC1
:102EE0001341018470470A460021018C4FF67F731D
:102EF0001940130541EA1341018470470A46002135
:102F0000018C4FF6FF531940130641EA1341018427
:102F100070470A460021018C4FF2FF7319401306D7
:102F200041EA1341018470470A460021018C4DF6A5
:102F3000FF731940130741EA13410184704730B50C
:102F4000002301248C40A3B2048CDD43ADB22C409D
:102F50000484048C02FA01F5ADB22C43048430BD24
:102F600030B5002304248C40A3B2048CDD43ADB201
:102F70002C400484048C02FA01F5ADB22C43048485
:102F800030BD70B5034600200024184618300125D6
:102F90008D40ACB21D8CE643B6B235401D8409B1FC
:102FA000082909D100EB6100056825F0700505606E
:102FB0000568154305600CE00D1FADB200EB650020
:102FC000056825F4E04505600568160645EA1645DE
:102FD000056070BD21B1028842F00202028004E067
:102FE00002884FF6FD731A400280704721B10288B3
:102FF00042F00402028004E002884FF6FB731A409C
:103000000280704721B1828842F08002828004E011
:1030100082884FF67F731A408280704702884FF68D
:10302000F7731A40028002880A4302807047828840
:103030004FF68F731A40828082880A4382807047DD
:1030400002894FF6F8731A40028102890A4302810D
:10305000704702894FF67F731A40028102890A4342
:1030600002817047818470478185704781867047EF
:103070000187704781877047A0F840107047028829
:103080004FF6FF431A40028002880A4302807047CD
:103090000146888E70470146088F70470146888F29
:1030A00070470146B1F8400070470146888C704770
:1030B0000146088D704702460020138A0B4201D05A
:1030C000012000E000207047CA430282704730B5FB
:1030D0000246002000230024158A05EA0103958991
:1030E00005EA010413B10CB1012000E0002030BD5D
:1030F000CA4302827047000010B50446FC4884426F
:1031000009D101218803FFF7CEF800214FF4804058
:10311000FFF7C9F832E0F748844209D10121480499
:10312000FFF7CEF800214FF40030FFF7C9F825E093
:10313000F148844209D101218804FFF7C1F8002138
:103140004FF48020FFF7BCF818E0EC48844209D126
:103150000121C804FFF7B4F800214FF40020FFF765
:10316000AFF80BE0E648844208D101210805FFF7DB
:10317000A7F800214FF48010FFF7A2F810BD2DE949
:10318000F04786B005460E460024A24600BFA14681
:103190000027B08900B100BF2F462C8A4CF6FF7083
:1031A0000440F08804432C82AC894EF6F3100440AE
:1031B000B08831890843718908430443AC81AC8AE3
:1031C0004FF6FF400440B0890443AC8201A8FEF7EB
:1031D000E3FFC748874202D1DDF810A001E0DDF827
:1031E0000CA0A88910F4004F08D00AEBCA0000EB2D
:1031F0000A1031684900B0FBF1F807E00AEBCA0099
:1032000000EB0A1031688900B0FBF1F86420B8FBCC
:10321000F0F004012009642101FB1089A88910F451
:10322000004F08D0322000EBC900B0FBF1F000F0F5
:103230000700044308E0322000EB09106421B0FBD2
:10324000F1F000F00F0004432C8106B0BDE8F087D8
:103250004FF41651016000218180C18001810C2151
:10326000418100218181704710B502460020108AFB
:103270004FF2FF0318400B884C8823438C8823436C
:10328000CC8823431843108210BD00210180418067
:103290008180C180704721B1828942F400528281CD
:1032A00004E082894DF6FF731A4082817047F0B5C1
:1032B00003460024002600250020A1F510676A3F80
:1032C00000D100BF1846C1F3421401F01F060127C8
:1032D00007FA06F5012C01D10C3004E0022C01D1D3
:1032E000103000E014301AB107682F43076002E085
:1032F0000768AF430760F0BD10B51AB1838A0B436E
:10330000838204E0838ACC43A4B22340838210BD2D
:10331000028A4FF6F0731A400282028A0A4302823E
:10332000704782894FF2FF731A40828182890A4373
:103330008281704721B1828942F00202828104E0D9
:1033400082894FF6FD731A4082817047028A4FF6D8
:10335000DF731A400282028A0A430282704721B157
:10336000028A42F48042028204E0028A4BF6FF7332
:103370001A4002827047C1F30802828070470146FA
:103380008888C0F308007047818941F0010181817C
:103390007047028BD2B20283028B42EA012202837F
:1033A0007047028B02F47F420283028B0A4302833E
:1033B000704721B1828A42F02002828204E0828A30
:1033C0004FF6DF731A408282704721B1828A42F041
:1033D0001002828204E0828A4FF6EF731A408282E2
:1033E000704721B1828A42F00802828204E0828A18
:1033F0004FF6F7731A408282704721B1828942F4F6
:103400000042828103E08289C2F30E02828170470A
:1034100021B1828A42F40062828204E0828A4FF201
:10342000FF731A4082827047828A4FF6FB731A40FC
:103430008282828A0A438282704721B1828A42F064
:103440000202828204E0828A4FF6FD731A40828271
:10345000704702460020B1F5007F00D100BF1388FD
:103460000B4201D0012000E00020704701F40072FF
:10347000B2F5007F00D100BFCA430280704770B52B
:1034800002460024002300250020A1F510666A3EB4
:1034900000D100BFC1F3421501F01F03012606FA57
:1034A00003F3012D02D19689334006E0022D02D1AB
:1034B000168A334001E0968A33400C12012606FA40
:1034C00004F41688344013B10CB1012000E0002050
:1034D00070BD10B500220023A1F510646A3C00D134
:1034E00000BF0A1201249440A3B2DC43048010BD43
:1034F000003801400044004000480040004C0040BB
:1035000000500040F0B480EA0102D20F4300B3EB58
:10351000410F02D20346084619464B0042D0C30D64
:10352000DDB2C1F3C7542C1B202C35DAC1F31601D0
:1035300041F4000502B16D42C4F1200605FA06F11E
:1035400025412844B3EBD05F23D0C2B1012CA0EBBE
:10355000C35009DCF0BC4FF0004202EAC35200F550
:103560000000DBB200F048BA400000F1807000EBD0
:10357000C350A0F1807040EAD170490009E04908C9
:1035800041EAC071A0EBC35000F50000400800EB19
:10359000C350F0BC00F027BA5142012303EB4101B4
:1035A000801AF6E7F0BC704781F00041AAE780F08E
:1035B0000040A7E780EA010210B502F00042400097
:1035C00026D04B0023D04FEA106101EB1361C0F30A
:1035D0005600C3F3560340F4000043F40003A0FB7D
:1035E0000330A1F17F014FEA00401C0401D000F13B
:1035F000010050EA134001D44000491EC3B20C063A
:1036000004EBD010401C4008802B02D003E00020C7
:1036100010BD20F00100002900DA0020104310BD89
:1036200080EA010202F0004330B430F0004221F0A1
:10363000004015D0A0B1C0F3C755C2F3C754C2F3C0
:103640001601C0F31600651B41F4000140F40000B0
:103650007D35814201D36D1C00E04900002D02DA66
:1036600030BC002070474FF400020024814201D397
:10367000091A144352084FEA4101F7D151B181426E
:1036800002D14FF0004105E002D24FF0010101E00C
:103690006FF0010104EBC55030BC184400F0A3B931
:1036A0002DE9FE4F81EA030421F0004504F00044B7
:1036B00023F000414FF0000A009450EA050302D0C5
:1036C00052EA010304D10020014603B0BDE8F08FA7
:1036D000C1F30A53C5F30A542344A3F2F33301930D
:1036E000A0FB02B3C5F3130545F4801CC1F313011D
:1036F00041F480180CFB023300FB083E810A930A58
:1037000041EA8C5143EA8853A1FB03474FEA9C25C9
:1037100005FB03734FEA982601FB06373D05260596
:1037200045EA1435BBEB06016EEB0503850E920EE0
:1037300045EA8C1542EA8812A5FB0206261E67EBB5
:1037400000070C0D44EA0334A61947EB1350C1F3EC
:1037500013044FF000031946E5FB02014FEA03355D
:1037600045EA1455019B4FEA0432009CA3F10C0377
:10377000CDE900A445EA060502932B4600F078F94E
:10378000A3E72DE9F04D81EA030404F0004B21F09A
:10379000004714464FF0000A23F0004150EA0702A8
:1037A00020D054EA01021DD0C1F30A550246C1F3EC
:1037B0001300C7F30A56C7F3130340F4801143F410
:1037C0008013A6EB0508101BD64608F2FD3873EBF4
:1037D000010002D308F1010801E092185B41B8F141
:1037E000000F03DA00200146BDE8F08D00204FF401
:1037F0008015064607460EE0B2EB040C73EB010C95
:1038000004D3121B064363EB01032F436D084FEAF9
:10381000300092185B4150EA050CEDD152EA0300EA
:1038200012D082EA040083EA0105284303D1002272
:103830004FF0004308E0101B8B4102D2012200230D
:1038400002E06FF0010253101AEB060047EB08513B
:1038500010EB0A0041EB0B01BDE8F04D00F0FBB8A6
:10386000C10F80EAE0700844CA079623002100F0E7
:10387000C3B896230022114600F0BEB80EB5002250
:1038800040F23343CDE9002202931346002100F0B9
:10389000EFF803B000BD00F0004220F00040C10D81
:1038A000C0F3160040F400007F2901DA00207047C1
:1038B000962903DCC1F19601C84001E096398840A1
:1038C000002AF4D04042704720F00040C10DC0F300
:1038D000160040F400007F2901DA00207047962985
:1038E00003DCC1F19601C8407047963988407047A3
:1038F00000F0004230F000400DD0C10D01F56071C4
:1039000042EA01510022C0F31600520742EAD002F7
:1039100040071143704700200146704701F0004204
:1039200030B421F0004150EA010306D00B0DA3F59D
:103930006073C1F31301002B02DC30BC0020704720
:10394000440F44EAC104C100A01830BC00EBC350CE
:1039500000F049B830B50B46014600202022012472
:1039600009E021FA02F59D4205D303FA02F5491B4D
:1039700004FA02F52844151EA2F10102F1DC30BD63
:103980002DE9F05F0546002092469B468846064694
:10399000814640241DE0284641464746224600F025
:1039A000AEF9B0EB0A0052465B4671EB0B0110D347
:1039B00010461946224600F093F92D1A67EB0108CC
:1039C0004F4622460120002100F08AF917EB00093A
:1039D0004E41201EA4F10104DDDC484631462A4652
:1039E0004346BDE8F09F0029A8BF7047401C49002E
:1039F00008BF20F00100704710B4B0FA80FC00FA54
:103A00000CF050EA010404BF10BC704749B1CCF17E
:103A1000200421FA04F411FA0CF118BF012121430A
:103A20000843A3EB0C01CB1D4FEA00614FEA1020C5
:103A300048BF0020BCBF10BC704700EBC35010440F
:103A40000029A4BF10BC7047401C490008BF20F0EB
:103A5000010010BC704710B5002B08DA401C41F182
:103A6000000192185B411A4301D120F0010010BD02
:103A70002DE9FF4D934611B1B1FA81F202E0B0FA9F
:103A800080F22032924600F02BF9039A07468846CE
:103A900040EA0B0011435B46084304D138464146D7
:103AA00004B0BDE8F08D114653EA020016D0CAF109
:103AB0004002584600F023F904460D464FF0010637
:103AC00058465246039900F00BF9084300D10026EE
:103AD000344345EAE675274345EA08080E984FF057
:103AE0000005A0EB0A014FEAD7200A314FEA4753FD
:103AF0002A4640EA48504FEAD82402D50020014621
:103B0000CEE7281844EB0151DDE90C45001904B05B
:103B10006941BDE8F04D9EE72DE9FE4F074681EA79
:103B20000300C00F0E46019021F0004123F0004435
:103B3000B81AA14105D23846314617461E460B46F3
:103B4000024623F00040104304D13846314603B00A
:103B5000BDE8F08F350DC5F30A00C3F30A5102909A
:103B6000401A0090402867DAC3F3130040F4801B2A
:103B70000198924620B10023D2EB030A63EB0B0BB2
:103B800000985946C0F14002504600F0A9F880461E
:103B90000C4650465946009A00F0C1F8C0197141D0
:103BA000EF1785EA11533B433FD0019A4AB3009A7D
:103BB000012A11DC0022801A61EB05514FF000430D
:103BC00003EA0555CDE90025801841F580114246EC
:103BD0002346FFF74DFFBAE72E050025401B61EB9A
:103BE0000601401941F58012001852412818A6F527
:103BF000001343EB020140EAD47018EB080864415B
:103C000013E064084FEA38084FF0000244EAC07439
:103C10004FEA0553801A61EB0301801841F58011CA
:103C200049084FEA3000801859414246234603B004
:103C3000BDE8F04FFFF70FBF0198012240000023BD
:103C4000D0EB020263EBE07301984FEAE074381A9C
:103C500066EB0401EBE783F000435DE781F0004190
:103C60005AE7C1F30A52C1F3130140F2FF3341F4A2
:103C700080119A4202DA00200146704740F2334335
:103C80009A42A2F2334202DC524200F038B800F00D
:103C900027B8000030B5002904DB4FF00044404253
:103CA00064EB0101002B04DB4FF00044524264EB53
:103CB0000303994208BF904230BD0000064C074DF7
:103CC00006E0E06840F0010394E8070098471034EC
:103CD000AC42F6D3FCF70EFA004600082046000876
:103CE000202A04DB203A00FA02F1002070479140BC
:103CF000C2F1200320FA03F3194390407047202AB1
:103D000004DB203A21FA02F00021704721FA02F385
:103D1000D040C2F120029140084319467047202A42
:103D200006DBCB17203A41FA02F043EAE07306E0E3
:103D300041FA02F3D040C2F12002914008431946F3
:103D4000704700000FB4054B10B503A9044A029850
:103D500000F0C2F810BC5DF814FB0000B7030008C7
:103D60002800002002E008C8121F08C1002AFAD16A
:103D700070477047002001E001C1121F002AFBD1EB
:103D8000704700002DE9FF5FDDE90210020DDDF84C
:103D900038B001430FD10F9801244AA3012807D05E
:103DA00000980F9AC0E90031C0E90242BDE8FF9FC8
:103DB0006FEA0B01F4E7A2F2FF3244F610504243DF
:103DC00015140F9801280FD0A5EB0B00401C4FF0E5
:103DD00000043D4EDFF8F490B0F1000AA046C0F1B7
:103DE000000717DB074615E0CBF10000EFE7F80707
:103DF00007D02246334640464946FFF751FC8046ED
:103E000089462246334620463146FFF749FC0446A0
:103E10000E467F10002FEAD1DDE90201BAF1000F52
:103E200042464B4602DAFFF73BFC01E0FFF7A9FCF4
:103E300004460E460022264BFFF72CFF03D84FF016
:103E4000FF30014607E00022224B20463146FFF7B3
:103E500063FEFFF706FF102409E0002C0ADB0A22AC
:103E60000023FFF78DFD019B30321A55641E50EA86
:103E70000102F2D1641C019AC4F1110314440F9A97
:103E8000012A07D00122084301D15B450DDD002244
:103E90006D1C0DE0084303D1A3EB0B056D1E09E07B
:103EA00000204FF0110B0F908BE701DA00226D1EFE
:103EB000002A86D000980F99C0E90231C0E9004578
:103EC00074E7000030000000000024400000F03FD4
:103ED0000000F0430000E03F2DE9FF4F95B006469B
:103EE0009A460F460025F2E1252878D10024761C59
:103EF000FB4AA046012106943378203B01FA03F0E7
:103F0000104202D00443761CF6E730782A2811D0FC
:103F10006FF02F023078A0F13001092915D80699E9
:103F200044F0020401EB810102EB41010844761CDC
:103F30000690EFE701CF0690002803DA404244F4F0
:103F40000054069044F00204761C30782E2817D1D5
:103F500016F8010F44F004042A280ED06FF02F0247
:103F60003078A0F1300109290AD808EB880102EB6A
:103F7000410100EB0108761CF2E757F8048B761C30
:103F800030786C280FD006DC4C2817D068280DD06C
:103F90006A2814D104E0742810D07A280FD10DE0DB
:103FA00044F400140AE044F4801401E044F44014A2
:103FB0007178814202D1761C04F58014761C307829
:103FC000864666280AD012DC582872D008DC80B3F6
:103FD000452803D0462801D047281AD196E118E099
:103FE000632832D0642875D0652812D18EE17028FC
:103FF0006ED008DC67286CD069286BD06E280DD095
:104000006F2806D1A9E0732828D075286FD07828AA
:104010006ED05246179990476D1C56E1C4F302507A
:10402000022807D003280BD0042801CF0BD005604D
:104030004BE150E101CF4FEAE571C0E9005144E1A5
:1040400001CF058041E105703FE101CF8DF800000F
:1040500000208DF80100EB46012003E057F804BB77
:104060004FF0FF3061074FF0000102D40DE009F17D
:104070000101894641450FDA8145F8DB1BF809103B
:104080000029F4D108E009F1010189468142FADBF7
:104090001BF809100029F6D106985346A0EB090039
:1040A00080462146179A00F094FA284400EB09054F
:1040B00005E047E01BF8010B524617999047B9F10C
:1040C0000109F7D2534621464046179AFAE001E02B
:1040D0003AE01BE10A21C4F302524FF0000B0091B9
:1040E000022A06D001CFC117032A08D009E022E036
:1040F00023E0FF1D27F00707F7E8020105E000B203
:10410000C117042A01D140B2C117002906DA0A46B4
:104110000021404261EB02012D2202E0220504D57C
:104120002B228DF80420012203E0E20701D0202297
:10413000F7E7914653E00A2110E010204FF0000B02
:1041400000900EE0102109E010204FF0000B44F029
:1041500004044FF00808009003E008214FF0000B22
:104160000091C4F30252022A04D001CF0021032A95
:1041700006D007E0FF1D27F00707F7E8020105E07A
:1041800080B20021042A01D1C0B200214FF0000901
:10419000220724D5BEF1700F2AD0009B83F01003B4
:1041A00053EA0B0309D150EA010206D030228DF800
:1041B00004208DF805E002229146009B83F008035D
:1041C00053EA0B030BD150EA010201D1620706D575
:1041D00030228DF804204FF00109A8F1010841A216
:1041E000BEF1580F00D044A203920FAA02920FE032
:1041F00040228DF804200122DEE75B46009AFFF79B
:10420000BFFB039B9B5C029AA2F101020292137016
:1042100050EA0102F1D1029807A9A1EB000000F1D8
:10422000200B600702D524F4803401E04FF0010830
:10423000002041465A46D84501DDA1EB020000EBC3
:104240000B01009006984944A0EB01000690E003A2
:1042500006D453462146179A069800F0BAF9054449
:10426000002008E001A8524610F80800179990476E
:104270006D1C08F1010080464845F3DBE0030CD5D6
:1042800053462146179A069800F0A3F9054404E026
:1042900030205246179990476D1C0099481E009097
:1042A0000029F5DC08E00298029952460078491C82
:1042B0000291179990476D1CBBF10001ABF1010B06
:1042C000F1DC67E100F072F9054406F1010630788F
:1042D00000287FF409AE19B02846BDE8F08F000031
:1042E000092801003031323334353637383941420C
:1042F0004344454600000000303132333435363710
:10430000383961626364656600000000600701D4AB
:104310004FF0060807F1070727F00707A0A1F7E805
:10432000020C0CF000431A0007D19EA1220504D410
:104330009DA1E20701D1AFF2440112912CF0004C93
:104340007146BEF1650F0ED007DC45290BD046291A
:1043500020D0BEF1470F3DD13DE066291AD0BEF115
:10436000670F37D137E0002311224146B8F1110F12
:1043700000DA4A1CCDE900230246634607A902A8D9
:10438000FFF700FD012000904FF0000B08F101093C
:10439000039868E04FF000410F910123CDE90083BD
:1043A0000246634607A902A8FFF7ECFCDDE904908A
:1043B0004FF0000B20B9039908F1010001EB00094F
:1043C000B8EB090003D4C0F1FF3B08F10109A9EBE8
:1043D0000800009048E04146B8F1010F01DA0121E0
:1043E000884600231122B8F1110F00DC0A46CDE9FE
:1043F00000230246634607A902A8FFF7C3FC4FF05B
:10440000000BC14620070FD40499414503DA8946C1
:1044100001E0A9F10109B9F1010F05DD0299A9F146
:104420000100085C3028F4D00399414502DA11F10B
:10443000040F03DA01200F91009015E0002903DC3E
:104440008B44A9EB010005E0481C484503DD0398B7
:1044500000F1010081460399A1EB0B0000F101007E
:1044600000904FF000400F90200705D40098484579
:1044700002DB4FF0FF30009000210F980DF147084C
:104480008DF84710B0F1004F26D0022001902B206C
:1044900013900F9800280CDA40420F902D201390B3
:1044A00007E00A210F98FFF755FA30310F9008F80E
:1044B000011D0199481E01900029F2DC0F98002887
:1044C000EFD1A8F1010213991170317801F02001A8
:1044D00041F0450108F8021D10A9A1EB080000F108
:1044E000070001901298007800B1012000EB09014B
:1044F000009801EBE071019801440698A0EB0100DF
:10450000A0F101000690E00306D453462146179A15
:10451000069800F05EF805441298007820B15246E3
:104520001799904705F10105E00322D5534621462E
:10453000179A069800F04DF805441AE0BBF1000FF9
:1045400007DB0499594504DD029911F80B0017990E
:1045500001E0179930205246904700986D1C401E8C
:104560000BF1010B009004D12E2052461799904771
:104570006D1CB9F10001A9F10109DFDC05E018F8B3
:10458000010B5246179990476D1C0199481E0190E6
:104590000029F4DC53462146179A069892E600005B
:1045A0002D0000002B000000200000002DE9F0414C
:1045B0000446002517461E46880405D406E0394601
:1045C0002020B04705F10105641EF8D52846BDE856
:1045D000F0812DE9F04104460025302790461E4623
:1045E000C80300D42027880405D506E04146384694
:1045F000B04705F10105641EF8D52846BDE8F081F5
:10460000204600080000002064000000643D00080F
:1046100084460008640000201C050000743D00086A
:1046200000A24A0400000000000000000102030490
:10463000060708090000000000000000000000005C
:10464000000000000000000000000000000000006A
:10465000000000000000000000000000000000005A
:10466000000000000000000000000000000000004A
:104670000000000001020304010203040607080908
:044680000204060822
:04000005080000ED02
:00000001FF
